{
  "_format": "hh-sol-artifact-1",
  "contractName": "Warranty",
  "sourceName": "contracts/Warranty.sol",
  "abi": [
    {
      "inputs": [],
      "stateMutability": "nonpayable",
      "type": "constructor"
    },
    {
      "anonymous": false,
      "inputs": [
        {
          "indexed": true,
          "internalType": "address",
          "name": "owner",
          "type": "address"
        },
        {
          "indexed": true,
          "internalType": "address",
          "name": "approved",
          "type": "address"
        },
        {
          "indexed": true,
          "internalType": "uint256",
          "name": "tokenId",
          "type": "uint256"
        }
      ],
      "name": "Approval",
      "type": "event"
    },
    {
      "anonymous": false,
      "inputs": [
        {
          "indexed": true,
          "internalType": "address",
          "name": "owner",
          "type": "address"
        },
        {
          "indexed": true,
          "internalType": "address",
          "name": "operator",
          "type": "address"
        },
        {
          "indexed": false,
          "internalType": "bool",
          "name": "approved",
          "type": "bool"
        }
      ],
      "name": "ApprovalForAll",
      "type": "event"
    },
    {
      "anonymous": false,
      "inputs": [
        {
          "indexed": true,
          "internalType": "uint256",
          "name": "tokenId",
          "type": "uint256"
        },
        {
          "indexed": false,
          "internalType": "string",
          "name": "uri",
          "type": "string"
        },
        {
          "indexed": false,
          "internalType": "address",
          "name": "mintedBy",
          "type": "address"
        },
        {
          "indexed": false,
          "internalType": "address",
          "name": "owner",
          "type": "address"
        },
        {
          "indexed": false,
          "internalType": "address",
          "name": "soldBy",
          "type": "address"
        },
        {
          "indexed": false,
          "internalType": "uint256",
          "name": "validUntil",
          "type": "uint256"
        }
      ],
      "name": "NftWarrantyCreated",
      "type": "event"
    },
    {
      "anonymous": false,
      "inputs": [
        {
          "indexed": true,
          "internalType": "bytes32",
          "name": "role",
          "type": "bytes32"
        },
        {
          "indexed": true,
          "internalType": "bytes32",
          "name": "previousAdminRole",
          "type": "bytes32"
        },
        {
          "indexed": true,
          "internalType": "bytes32",
          "name": "newAdminRole",
          "type": "bytes32"
        }
      ],
      "name": "RoleAdminChanged",
      "type": "event"
    },
    {
      "anonymous": false,
      "inputs": [
        {
          "indexed": true,
          "internalType": "bytes32",
          "name": "role",
          "type": "bytes32"
        },
        {
          "indexed": true,
          "internalType": "address",
          "name": "account",
          "type": "address"
        },
        {
          "indexed": true,
          "internalType": "address",
          "name": "sender",
          "type": "address"
        }
      ],
      "name": "RoleGranted",
      "type": "event"
    },
    {
      "anonymous": false,
      "inputs": [
        {
          "indexed": true,
          "internalType": "bytes32",
          "name": "role",
          "type": "bytes32"
        },
        {
          "indexed": true,
          "internalType": "address",
          "name": "account",
          "type": "address"
        },
        {
          "indexed": true,
          "internalType": "address",
          "name": "sender",
          "type": "address"
        }
      ],
      "name": "RoleRevoked",
      "type": "event"
    },
    {
      "anonymous": false,
      "inputs": [
        {
          "indexed": true,
          "internalType": "address",
          "name": "from",
          "type": "address"
        },
        {
          "indexed": true,
          "internalType": "address",
          "name": "to",
          "type": "address"
        },
        {
          "indexed": true,
          "internalType": "uint256",
          "name": "tokenId",
          "type": "uint256"
        }
      ],
      "name": "Transfer",
      "type": "event"
    },
    {
      "inputs": [],
      "name": "DEFAULT_ADMIN_ROLE",
      "outputs": [
        {
          "internalType": "bytes32",
          "name": "",
          "type": "bytes32"
        }
      ],
      "stateMutability": "view",
      "type": "function"
    },
    {
      "inputs": [],
      "name": "SELLER_ROLE",
      "outputs": [
        {
          "internalType": "bytes32",
          "name": "",
          "type": "bytes32"
        }
      ],
      "stateMutability": "view",
      "type": "function"
    },
    {
      "inputs": [
        {
          "internalType": "address",
          "name": "to",
          "type": "address"
        },
        {
          "internalType": "uint256",
          "name": "tokenId",
          "type": "uint256"
        }
      ],
      "name": "approve",
      "outputs": [],
      "stateMutability": "nonpayable",
      "type": "function"
    },
    {
      "inputs": [
        {
          "internalType": "address",
          "name": "_to",
          "type": "address"
        }
      ],
      "name": "assignSeller",
      "outputs": [],
      "stateMutability": "nonpayable",
      "type": "function"
    },
    {
      "inputs": [
        {
          "internalType": "address",
          "name": "owner",
          "type": "address"
        }
      ],
      "name": "balanceOf",
      "outputs": [
        {
          "internalType": "uint256",
          "name": "",
          "type": "uint256"
        }
      ],
      "stateMutability": "view",
      "type": "function"
    },
    {
      "inputs": [
        {
          "internalType": "address",
          "name": "_to",
          "type": "address"
        },
        {
          "internalType": "string",
          "name": "tokenURI",
          "type": "string"
        },
        {
          "internalType": "uint256",
          "name": "_minutesValid",
          "type": "uint256"
        }
      ],
      "name": "createWarranty",
      "outputs": [
        {
          "internalType": "uint256",
          "name": "",
          "type": "uint256"
        }
      ],
      "stateMutability": "nonpayable",
      "type": "function"
    },
    {
      "inputs": [],
      "name": "fetchMyNFTs",
      "outputs": [
        {
          "components": [
            {
              "internalType": "uint256",
              "name": "tokenId",
              "type": "uint256"
            },
            {
              "internalType": "string",
              "name": "uri",
              "type": "string"
            },
            {
              "internalType": "address",
              "name": "mintedBy",
              "type": "address"
            },
            {
              "internalType": "address",
              "name": "owner",
              "type": "address"
            },
            {
              "internalType": "address",
              "name": "soldBy",
              "type": "address"
            },
            {
              "internalType": "uint256",
              "name": "validUntil",
              "type": "uint256"
            }
          ],
          "internalType": "struct Warranty.warrantyNFT[]",
          "name": "",
          "type": "tuple[]"
        }
      ],
      "stateMutability": "view",
      "type": "function"
    },
    {
      "inputs": [
        {
          "internalType": "uint256",
          "name": "_tokenId",
          "type": "uint256"
        }
      ],
      "name": "fetchNFTbyTokenId",
      "outputs": [
        {
          "components": [
            {
              "internalType": "uint256",
              "name": "tokenId",
              "type": "uint256"
            },
            {
              "internalType": "string",
              "name": "uri",
              "type": "string"
            },
            {
              "internalType": "address",
              "name": "mintedBy",
              "type": "address"
            },
            {
              "internalType": "address",
              "name": "owner",
              "type": "address"
            },
            {
              "internalType": "address",
              "name": "soldBy",
              "type": "address"
            },
            {
              "internalType": "uint256",
              "name": "validUntil",
              "type": "uint256"
            }
          ],
          "internalType": "struct Warranty.warrantyNFT",
          "name": "",
          "type": "tuple"
        }
      ],
      "stateMutability": "view",
      "type": "function"
    },
    {
      "inputs": [
        {
          "internalType": "address",
          "name": "_by",
          "type": "address"
        }
      ],
      "name": "fetchNFTsMintedBy",
      "outputs": [
        {
          "components": [
            {
              "internalType": "uint256",
              "name": "tokenId",
              "type": "uint256"
            },
            {
              "internalType": "string",
              "name": "uri",
              "type": "string"
            },
            {
              "internalType": "address",
              "name": "mintedBy",
              "type": "address"
            },
            {
              "internalType": "address",
              "name": "owner",
              "type": "address"
            },
            {
              "internalType": "address",
              "name": "soldBy",
              "type": "address"
            },
            {
              "internalType": "uint256",
              "name": "validUntil",
              "type": "uint256"
            }
          ],
          "internalType": "struct Warranty.warrantyNFT[]",
          "name": "",
          "type": "tuple[]"
        }
      ],
      "stateMutability": "view",
      "type": "function"
    },
    {
      "inputs": [
        {
          "internalType": "uint256",
          "name": "tokenId",
          "type": "uint256"
        }
      ],
      "name": "getApproved",
      "outputs": [
        {
          "internalType": "address",
          "name": "",
          "type": "address"
        }
      ],
      "stateMutability": "view",
      "type": "function"
    },
    {
      "inputs": [
        {
          "internalType": "bytes32",
          "name": "role",
          "type": "bytes32"
        }
      ],
      "name": "getRoleAdmin",
      "outputs": [
        {
          "internalType": "bytes32",
          "name": "",
          "type": "bytes32"
        }
      ],
      "stateMutability": "view",
      "type": "function"
    },
    {
      "inputs": [
        {
          "internalType": "bytes32",
          "name": "role",
          "type": "bytes32"
        },
        {
          "internalType": "address",
          "name": "account",
          "type": "address"
        }
      ],
      "name": "grantRole",
      "outputs": [],
      "stateMutability": "nonpayable",
      "type": "function"
    },
    {
      "inputs": [
        {
          "internalType": "bytes32",
          "name": "role",
          "type": "bytes32"
        },
        {
          "internalType": "address",
          "name": "account",
          "type": "address"
        }
      ],
      "name": "hasRole",
      "outputs": [
        {
          "internalType": "bool",
          "name": "",
          "type": "bool"
        }
      ],
      "stateMutability": "view",
      "type": "function"
    },
    {
      "inputs": [
        {
          "internalType": "address",
          "name": "owner",
          "type": "address"
        },
        {
          "internalType": "address",
          "name": "operator",
          "type": "address"
        }
      ],
      "name": "isApprovedForAll",
      "outputs": [
        {
          "internalType": "bool",
          "name": "",
          "type": "bool"
        }
      ],
      "stateMutability": "view",
      "type": "function"
    },
    {
      "inputs": [],
      "name": "name",
      "outputs": [
        {
          "internalType": "string",
          "name": "",
          "type": "string"
        }
      ],
      "stateMutability": "view",
      "type": "function"
    },
    {
      "inputs": [
        {
          "internalType": "uint256",
          "name": "tokenId",
          "type": "uint256"
        }
      ],
      "name": "ownerOf",
      "outputs": [
        {
          "internalType": "address",
          "name": "",
          "type": "address"
        }
      ],
      "stateMutability": "view",
      "type": "function"
    },
    {
      "inputs": [
        {
          "internalType": "bytes32",
          "name": "role",
          "type": "bytes32"
        },
        {
          "internalType": "address",
          "name": "account",
          "type": "address"
        }
      ],
      "name": "renounceRole",
      "outputs": [],
      "stateMutability": "nonpayable",
      "type": "function"
    },
    {
      "inputs": [
        {
          "internalType": "uint256",
          "name": "_tokenId",
          "type": "uint256"
        },
        {
          "internalType": "address",
          "name": "_to",
          "type": "address"
        }
      ],
      "name": "resellWarrantyNft",
      "outputs": [],
      "stateMutability": "nonpayable",
      "type": "function"
    },
    {
      "inputs": [
        {
          "internalType": "bytes32",
          "name": "role",
          "type": "bytes32"
        },
        {
          "internalType": "address",
          "name": "account",
          "type": "address"
        }
      ],
      "name": "revokeRole",
      "outputs": [],
      "stateMutability": "nonpayable",
      "type": "function"
    },
    {
      "inputs": [
        {
          "internalType": "address",
          "name": "from",
          "type": "address"
        },
        {
          "internalType": "address",
          "name": "to",
          "type": "address"
        },
        {
          "internalType": "uint256",
          "name": "tokenId",
          "type": "uint256"
        }
      ],
      "name": "safeTransferFrom",
      "outputs": [],
      "stateMutability": "nonpayable",
      "type": "function"
    },
    {
      "inputs": [
        {
          "internalType": "address",
          "name": "from",
          "type": "address"
        },
        {
          "internalType": "address",
          "name": "to",
          "type": "address"
        },
        {
          "internalType": "uint256",
          "name": "tokenId",
          "type": "uint256"
        },
        {
          "internalType": "bytes",
          "name": "data",
          "type": "bytes"
        }
      ],
      "name": "safeTransferFrom",
      "outputs": [],
      "stateMutability": "nonpayable",
      "type": "function"
    },
    {
      "inputs": [
        {
          "internalType": "address",
          "name": "operator",
          "type": "address"
        },
        {
          "internalType": "bool",
          "name": "approved",
          "type": "bool"
        }
      ],
      "name": "setApprovalForAll",
      "outputs": [],
      "stateMutability": "nonpayable",
      "type": "function"
    },
    {
      "inputs": [
        {
          "internalType": "bytes4",
          "name": "interfaceId",
          "type": "bytes4"
        }
      ],
      "name": "supportsInterface",
      "outputs": [
        {
          "internalType": "bool",
          "name": "",
          "type": "bool"
        }
      ],
      "stateMutability": "view",
      "type": "function"
    },
    {
      "inputs": [],
      "name": "symbol",
      "outputs": [
        {
          "internalType": "string",
          "name": "",
          "type": "string"
        }
      ],
      "stateMutability": "view",
      "type": "function"
    },
    {
      "inputs": [
        {
          "internalType": "uint256",
          "name": "tokenId",
          "type": "uint256"
        }
      ],
      "name": "tokenURI",
      "outputs": [
        {
          "internalType": "string",
          "name": "",
          "type": "string"
        }
      ],
      "stateMutability": "view",
      "type": "function"
    },
    {
      "inputs": [
        {
          "internalType": "address",
          "name": "from",
          "type": "address"
        },
        {
          "internalType": "address",
          "name": "to",
          "type": "address"
        },
        {
          "internalType": "uint256",
          "name": "tokenId",
          "type": "uint256"
        }
      ],
      "name": "transferFrom",
      "outputs": [],
      "stateMutability": "nonpayable",
      "type": "function"
    },
    {
      "inputs": [
        {
          "internalType": "uint256",
          "name": "_tokenId",
          "type": "uint256"
        }
      ],
      "name": "validateNft",
      "outputs": [
        {
          "internalType": "bool",
          "name": "",
          "type": "bool"
        }
      ],
      "stateMutability": "nonpayable",
      "type": "function"
    }
  ],
  "bytecode": "0x60806040523480156200001157600080fd5b506040518060400160405280600f81526020017f57617272616e747920546f6b656e7300000000000000000000000000000000008152506040518060400160405280600481526020017f574154540000000000000000000000000000000000000000000000000000000081525081600090805190602001906200009692919062000248565b508060019080519060200190620000af92919062000248565b505050620000c76000801b33620000cd60201b60201c565b6200035d565b620000df8282620000e360201b60201c565b5050565b620000f58282620001d560201b60201c565b620001d15760016007600084815260200190815260200160002060000160008373ffffffffffffffffffffffffffffffffffffffff1673ffffffffffffffffffffffffffffffffffffffff16815260200190815260200160002060006101000a81548160ff021916908315150217905550620001766200024060201b60201c565b73ffffffffffffffffffffffffffffffffffffffff168173ffffffffffffffffffffffffffffffffffffffff16837f2f8788117e7eff1d82e926ec794901d17c78024a50270940304540a733656f0d60405160405180910390a45b5050565b60006007600084815260200190815260200160002060000160008373ffffffffffffffffffffffffffffffffffffffff1673ffffffffffffffffffffffffffffffffffffffff16815260200190815260200160002060009054906101000a900460ff16905092915050565b600033905090565b828054620002569062000327565b90600052602060002090601f0160209004810192826200027a5760008555620002c6565b82601f106200029557805160ff1916838001178555620002c6565b82800160010185558215620002c6579182015b82811115620002c5578251825591602001919060010190620002a8565b5b509050620002d59190620002d9565b5090565b5b80821115620002f4576000816000905550600101620002da565b5090565b7f4e487b7100000000000000000000000000000000000000000000000000000000600052602260045260246000fd5b600060028204905060018216806200034057607f821691505b60208210811415620003575762000356620002f8565b5b50919050565b614b8b806200036d6000396000f3fe608060405234801561001057600080fd5b50600436106101a95760003560e01c806370a08231116100f9578063b88d4fde11610097578063d547741f11610071578063d547741f14610502578063dbe4613d1461051e578063e985e9c51461053c578063fdc7aea61461056c576101a9565b8063b88d4fde1461049a578063bc7ff274146104b6578063c87b56dd146104d2576101a9565b80639d2c075d116100d35780639d2c075d14610414578063a217fddf14610444578063a22cb46514610462578063a6ac9aa91461047e576101a9565b806370a082311461039657806391d14854146103c657806395d89b41146103f6576101a9565b8063248a9ca31161016657806336568abe1161014057806336568abe146102fe57806342842e0e1461031a5780636114248b146103365780636352211e14610366576101a9565b8063248a9ca31461028257806324f94346146102b25780632f2ff15d146102e2576101a9565b806301ffc9a7146101ae57806306fdde03146101de578063081812fc146101fc578063095ea7b31461022c578063202e37401461024857806323b872dd14610266575b600080fd5b6101c860048036038101906101c39190613311565b61059c565b6040516101d59190613359565b60405180910390f35b6101e66105ae565b6040516101f3919061340d565b60405180910390f35b61021660048036038101906102119190613465565b610640565b60405161022391906134d3565b60405180910390f35b6102466004803603810190610241919061351a565b610686565b005b61025061079e565b60405161025d919061370d565b60405180910390f35b610280600480360381019061027b919061372f565b610b59565b005b61029c600480360381019061029791906137b8565b610bb9565b6040516102a991906137f4565b60405180910390f35b6102cc60048036038101906102c79190613465565b610bd9565b6040516102d99190613359565b60405180910390f35b6102fc60048036038101906102f7919061380f565b610cc0565b005b6103186004803603810190610313919061380f565b610ce1565b005b610334600480360381019061032f919061372f565b610d64565b005b610350600480360381019061034b9190613984565b610d84565b60405161035d9190613a02565b60405180910390f35b610380600480360381019061037b9190613465565b61103f565b60405161038d91906134d3565b60405180910390f35b6103b060048036038101906103ab9190613a1d565b6110f1565b6040516103bd9190613a02565b60405180910390f35b6103e060048036038101906103db919061380f565b6111a9565b6040516103ed9190613359565b60405180910390f35b6103fe611214565b60405161040b919061340d565b60405180910390f35b61042e60048036038101906104299190613465565b6112a6565b60405161043b9190613ad3565b60405180910390f35b61044c611481565b60405161045991906137f4565b60405180910390f35b61047c60048036038101906104779190613b21565b611488565b005b61049860048036038101906104939190613b61565b61149e565b005b6104b460048036038101906104af9190613c42565b61164a565b005b6104d060048036038101906104cb9190613a1d565b6116ac565b005b6104ec60048036038101906104e79190613465565b6116d9565b6040516104f9919061340d565b60405180910390f35b61051c6004803603810190610517919061380f565b6117ec565b005b61052661180d565b60405161053391906137f4565b60405180910390f35b61055660048036038101906105519190613cc5565b611831565b6040516105639190613359565b60405180910390f35b61058660048036038101906105819190613a1d565b6118c5565b604051610593919061370d565b60405180910390f35b60006105a782611c82565b9050919050565b6060600080546105bd90613d34565b80601f01602080910402602001604051908101604052809291908181526020018280546105e990613d34565b80156106365780601f1061060b57610100808354040283529160200191610636565b820191906000526020600020905b81548152906001019060200180831161061957829003601f168201915b5050505050905090565b600061064b82611cfc565b6004600083815260200190815260200160002060009054906101000a900473ffffffffffffffffffffffffffffffffffffffff169050919050565b60006106918261103f565b90508073ffffffffffffffffffffffffffffffffffffffff168373ffffffffffffffffffffffffffffffffffffffff161415610702576040517f08c379a00000000000000000000000000000000000000000000000000000000081526004016106f990613dd8565b60405180910390fd5b8073ffffffffffffffffffffffffffffffffffffffff16610721611d47565b73ffffffffffffffffffffffffffffffffffffffff161480610750575061074f8161074a611d47565b611831565b5b61078f576040517f08c379a000000000000000000000000000000000000000000000000000000000815260040161078690613e6a565b60405180910390fd5b6107998383611d4f565b505050565b606060006107ac6008611e08565b905060008060005b83811015610855573373ffffffffffffffffffffffffffffffffffffffff16600960006001846107e49190613eb9565b815260200190815260200160002060030160009054906101000a900473ffffffffffffffffffffffffffffffffffffffff1673ffffffffffffffffffffffffffffffffffffffff1614156108425760018361083f9190613eb9565b92505b808061084d90613f0f565b9150506107b4565b5060008267ffffffffffffffff81111561087257610871613859565b5b6040519080825280602002602001820160405280156108ab57816020015b61089861314a565b8152602001906001900390816108905790505b50905060005b84811015610b4e573373ffffffffffffffffffffffffffffffffffffffff16600960006001846108e19190613eb9565b815260200190815260200160002060030160009054906101000a900473ffffffffffffffffffffffffffffffffffffffff1673ffffffffffffffffffffffffffffffffffffffff161415610b3b57600060018261093e9190613eb9565b90506000600960008381526020019081526020016000209050806040518060c00160405290816000820154815260200160018201805461097d90613d34565b80601f01602080910402602001604051908101604052809291908181526020018280546109a990613d34565b80156109f65780601f106109cb576101008083540402835291602001916109f6565b820191906000526020600020905b8154815290600101906020018083116109d957829003601f168201915b505050505081526020016002820160009054906101000a900473ffffffffffffffffffffffffffffffffffffffff1673ffffffffffffffffffffffffffffffffffffffff1673ffffffffffffffffffffffffffffffffffffffff1681526020016003820160009054906101000a900473ffffffffffffffffffffffffffffffffffffffff1673ffffffffffffffffffffffffffffffffffffffff1673ffffffffffffffffffffffffffffffffffffffff1681526020016004820160009054906101000a900473ffffffffffffffffffffffffffffffffffffffff1673ffffffffffffffffffffffffffffffffffffffff1673ffffffffffffffffffffffffffffffffffffffff168152602001600582015481525050848681518110610b1e57610b1d613f58565b5b6020026020010181905250600185610b369190613eb9565b945050505b8080610b4690613f0f565b9150506108b1565b508094505050505090565b610b6a610b64611d47565b82611e16565b610ba9576040517f08c379a0000000000000000000000000000000000000000000000000000000008152600401610ba090613ff9565b60405180910390fd5b610bb4838383611eab565b505050565b600060076000838152602001908152602001600020600101549050919050565b600060011515610be883612112565b151514610c2a576040517f08c379a0000000000000000000000000000000000000000000000000000000008152600401610c2190614065565b60405180910390fd5b600060096000848152602001908152602001600020600501549050804210610cb557610c558361217e565b60006009600085815260200190815260200160002060030160006101000a81548173ffffffffffffffffffffffffffffffffffffffff021916908373ffffffffffffffffffffffffffffffffffffffff1602179055506000915050610cbb565b60019150505b919050565b610cc982610bb9565b610cd2816121d1565b610cdc83836121e5565b505050565b610ce9611d47565b73ffffffffffffffffffffffffffffffffffffffff168173ffffffffffffffffffffffffffffffffffffffff1614610d56576040517f08c379a0000000000000000000000000000000000000000000000000000000008152600401610d4d906140f7565b60405180910390fd5b610d6082826122c6565b5050565b610d7f8383836040518060200160405280600081525061164a565b505050565b60003360011515610db57f43f25613eb2f15fb17222a5d424ca2655743e71265d98e4b93c05e5fb589ecde836111a9565b15151480610dd3575060011515610dcf6000801b836111a9565b1515145b15610ffc57610de260086123a8565b6000610dee6008611e08565b9050610dfa86826123be565b610e0481866123dc565b6000610e1a603c8661245090919063ffffffff16565b42610e259190613eb9565b90506040518060c001604052808381526020018781526020013373ffffffffffffffffffffffffffffffffffffffff1681526020018873ffffffffffffffffffffffffffffffffffffffff1681526020013373ffffffffffffffffffffffffffffffffffffffff1681526020018281525060096000848152602001908152602001600020600082015181600001556020820151816001019080519060200190610ecf9291906131c2565b5060408201518160020160006101000a81548173ffffffffffffffffffffffffffffffffffffffff021916908373ffffffffffffffffffffffffffffffffffffffff16021790555060608201518160030160006101000a81548173ffffffffffffffffffffffffffffffffffffffff021916908373ffffffffffffffffffffffffffffffffffffffff16021790555060808201518160040160006101000a81548173ffffffffffffffffffffffffffffffffffffffff021916908373ffffffffffffffffffffffffffffffffffffffff16021790555060a08201518160050155905050817f48f90523871e99bdbbc3da9c6b5b012bf532da42383971218dd1529077a8006d87338a3386604051610fea959493929190614117565b60405180910390a28193505050611037565b6040517f08c379a000000000000000000000000000000000000000000000000000000000815260040161102e906141e3565b60405180910390fd5b509392505050565b6000806002600084815260200190815260200160002060009054906101000a900473ffffffffffffffffffffffffffffffffffffffff169050600073ffffffffffffffffffffffffffffffffffffffff168173ffffffffffffffffffffffffffffffffffffffff1614156110e8576040517f08c379a00000000000000000000000000000000000000000000000000000000081526004016110df9061424f565b60405180910390fd5b80915050919050565b60008073ffffffffffffffffffffffffffffffffffffffff168273ffffffffffffffffffffffffffffffffffffffff161415611162576040517f08c379a0000000000000000000000000000000000000000000000000000000008152600401611159906142e1565b60405180910390fd5b600360008373ffffffffffffffffffffffffffffffffffffffff1673ffffffffffffffffffffffffffffffffffffffff168152602001908152602001600020549050919050565b60006007600084815260200190815260200160002060000160008373ffffffffffffffffffffffffffffffffffffffff1673ffffffffffffffffffffffffffffffffffffffff16815260200190815260200160002060009054906101000a900460ff16905092915050565b60606001805461122390613d34565b80601f016020809104026020016040519081016040528092919081815260200182805461124f90613d34565b801561129c5780601f106112715761010080835404028352916020019161129c565b820191906000526020600020905b81548152906001019060200180831161127f57829003601f168201915b5050505050905090565b6112ae61314a565b6000600960008481526020019081526020016000206040518060c0016040529081600082015481526020016001820180546112e890613d34565b80601f016020809104026020016040519081016040528092919081815260200182805461131490613d34565b80156113615780601f1061133657610100808354040283529160200191611361565b820191906000526020600020905b81548152906001019060200180831161134457829003601f168201915b505050505081526020016002820160009054906101000a900473ffffffffffffffffffffffffffffffffffffffff1673ffffffffffffffffffffffffffffffffffffffff1673ffffffffffffffffffffffffffffffffffffffff1681526020016003820160009054906101000a900473ffffffffffffffffffffffffffffffffffffffff1673ffffffffffffffffffffffffffffffffffffffff1673ffffffffffffffffffffffffffffffffffffffff1681526020016004820160009054906101000a900473ffffffffffffffffffffffffffffffffffffffff1673ffffffffffffffffffffffffffffffffffffffff1673ffffffffffffffffffffffffffffffffffffffff168152602001600582015481525050905080915050919050565b6000801b81565b61149a611493611d47565b8383612466565b5050565b3373ffffffffffffffffffffffffffffffffffffffff166009600084815260200190815260200160002060030160009054906101000a900473ffffffffffffffffffffffffffffffffffffffff1673ffffffffffffffffffffffffffffffffffffffff1614611542576040517f08c379a000000000000000000000000000000000000000000000000000000000815260040161153990614373565b60405180910390fd5b6001151561154f83610bd9565b151514611591576040517f08c379a0000000000000000000000000000000000000000000000000000000008152600401611588906143df565b60405180910390fd5b336009600084815260200190815260200160002060040160006101000a81548173ffffffffffffffffffffffffffffffffffffffff021916908373ffffffffffffffffffffffffffffffffffffffff160217905550806009600084815260200190815260200160002060030160006101000a81548173ffffffffffffffffffffffffffffffffffffffff021916908373ffffffffffffffffffffffffffffffffffffffff160217905550611646338284611eab565b5050565b61165b611655611d47565b83611e16565b61169a576040517f08c379a000000000000000000000000000000000000000000000000000000000815260040161169190613ff9565b60405180910390fd5b6116a6848484846125d3565b50505050565b6116d67f43f25613eb2f15fb17222a5d424ca2655743e71265d98e4b93c05e5fb589ecde82610cc0565b50565b60606116e482611cfc565b600060066000848152602001908152602001600020805461170490613d34565b80601f016020809104026020016040519081016040528092919081815260200182805461173090613d34565b801561177d5780601f106117525761010080835404028352916020019161177d565b820191906000526020600020905b81548152906001019060200180831161176057829003601f168201915b50505050509050600061178e61262f565b90506000815114156117a45781925050506117e7565b6000825111156117d95780826040516020016117c192919061443b565b604051602081830303815290604052925050506117e7565b6117e284612646565b925050505b919050565b6117f582610bb9565b6117fe816121d1565b61180883836122c6565b505050565b7f43f25613eb2f15fb17222a5d424ca2655743e71265d98e4b93c05e5fb589ecde81565b6000600560008473ffffffffffffffffffffffffffffffffffffffff1673ffffffffffffffffffffffffffffffffffffffff16815260200190815260200160002060008373ffffffffffffffffffffffffffffffffffffffff1673ffffffffffffffffffffffffffffffffffffffff16815260200190815260200160002060009054906101000a900460ff16905092915050565b606060006118d36008611e08565b905060008060005b8381101561197c578573ffffffffffffffffffffffffffffffffffffffff166009600060018461190b9190613eb9565b815260200190815260200160002060020160009054906101000a900473ffffffffffffffffffffffffffffffffffffffff1673ffffffffffffffffffffffffffffffffffffffff161415611969576001836119669190613eb9565b92505b808061197490613f0f565b9150506118db565b5060008267ffffffffffffffff81111561199957611998613859565b5b6040519080825280602002602001820160405280156119d257816020015b6119bf61314a565b8152602001906001900390816119b75790505b50905060005b84811015611c75578673ffffffffffffffffffffffffffffffffffffffff1660096000600184611a089190613eb9565b815260200190815260200160002060020160009054906101000a900473ffffffffffffffffffffffffffffffffffffffff1673ffffffffffffffffffffffffffffffffffffffff161415611c62576000600182611a659190613eb9565b90506000600960008381526020019081526020016000209050806040518060c001604052908160008201548152602001600182018054611aa490613d34565b80601f0160208091040260200160405190810160405280929190818152602001828054611ad090613d34565b8015611b1d5780601f10611af257610100808354040283529160200191611b1d565b820191906000526020600020905b815481529060010190602001808311611b0057829003601f168201915b505050505081526020016002820160009054906101000a900473ffffffffffffffffffffffffffffffffffffffff1673ffffffffffffffffffffffffffffffffffffffff1673ffffffffffffffffffffffffffffffffffffffff1681526020016003820160009054906101000a900473ffffffffffffffffffffffffffffffffffffffff1673ffffffffffffffffffffffffffffffffffffffff1673ffffffffffffffffffffffffffffffffffffffff1681526020016004820160009054906101000a900473ffffffffffffffffffffffffffffffffffffffff1673ffffffffffffffffffffffffffffffffffffffff1673ffffffffffffffffffffffffffffffffffffffff168152602001600582015481525050848681518110611c4557611c44613f58565b5b6020026020010181905250600185611c5d9190613eb9565b945050505b8080611c6d90613f0f565b9150506119d8565b5080945050505050919050565b60007f7965db0b000000000000000000000000000000000000000000000000000000007bffffffffffffffffffffffffffffffffffffffffffffffffffffffff1916827bffffffffffffffffffffffffffffffffffffffffffffffffffffffff19161480611cf55750611cf4826126ae565b5b9050919050565b611d0581612112565b611d44576040517f08c379a0000000000000000000000000000000000000000000000000000000008152600401611d3b9061424f565b60405180910390fd5b50565b600033905090565b816004600083815260200190815260200160002060006101000a81548173ffffffffffffffffffffffffffffffffffffffff021916908373ffffffffffffffffffffffffffffffffffffffff160217905550808273ffffffffffffffffffffffffffffffffffffffff16611dc28361103f565b73ffffffffffffffffffffffffffffffffffffffff167f8c5be1e5ebec7d5bd14f71427d1e84f3dd0314c0f7b2291e5b200ac8c7c3b92560405160405180910390a45050565b600081600001549050919050565b600080611e228361103f565b90508073ffffffffffffffffffffffffffffffffffffffff168473ffffffffffffffffffffffffffffffffffffffff161480611e645750611e638185611831565b5b80611ea257508373ffffffffffffffffffffffffffffffffffffffff16611e8a84610640565b73ffffffffffffffffffffffffffffffffffffffff16145b91505092915050565b8273ffffffffffffffffffffffffffffffffffffffff16611ecb8261103f565b73ffffffffffffffffffffffffffffffffffffffff1614611f21576040517f08c379a0000000000000000000000000000000000000000000000000000000008152600401611f18906144d1565b60405180910390fd5b600073ffffffffffffffffffffffffffffffffffffffff168273ffffffffffffffffffffffffffffffffffffffff161415611f91576040517f08c379a0000000000000000000000000000000000000000000000000000000008152600401611f8890614563565b60405180910390fd5b611f9c838383612790565b611fa7600082611d4f565b6001600360008573ffffffffffffffffffffffffffffffffffffffff1673ffffffffffffffffffffffffffffffffffffffff1681526020019081526020016000206000828254611ff79190614583565b925050819055506001600360008473ffffffffffffffffffffffffffffffffffffffff1673ffffffffffffffffffffffffffffffffffffffff168152602001908152602001600020600082825461204e9190613eb9565b92505081905550816002600083815260200190815260200160002060006101000a81548173ffffffffffffffffffffffffffffffffffffffff021916908373ffffffffffffffffffffffffffffffffffffffff160217905550808273ffffffffffffffffffffffffffffffffffffffff168473ffffffffffffffffffffffffffffffffffffffff167fddf252ad1be2c89b69c2b068fc378daa952ba7f163c4a11628f55a4df523b3ef60405160405180910390a461210d838383612795565b505050565b60008073ffffffffffffffffffffffffffffffffffffffff166002600084815260200190815260200160002060009054906101000a900473ffffffffffffffffffffffffffffffffffffffff1673ffffffffffffffffffffffffffffffffffffffff1614159050919050565b6121878161279a565b60006006600083815260200190815260200160002080546121a790613d34565b9050146121ce576006600082815260200190815260200160002060006121cd9190613248565b5b50565b6121e2816121dd611d47565b6128b7565b50565b6121ef82826111a9565b6122c25760016007600084815260200190815260200160002060000160008373ffffffffffffffffffffffffffffffffffffffff1673ffffffffffffffffffffffffffffffffffffffff16815260200190815260200160002060006101000a81548160ff021916908315150217905550612267611d47565b73ffffffffffffffffffffffffffffffffffffffff168173ffffffffffffffffffffffffffffffffffffffff16837f2f8788117e7eff1d82e926ec794901d17c78024a50270940304540a733656f0d60405160405180910390a45b5050565b6122d082826111a9565b156123a45760006007600084815260200190815260200160002060000160008373ffffffffffffffffffffffffffffffffffffffff1673ffffffffffffffffffffffffffffffffffffffff16815260200190815260200160002060006101000a81548160ff021916908315150217905550612349611d47565b73ffffffffffffffffffffffffffffffffffffffff168173ffffffffffffffffffffffffffffffffffffffff16837ff6391f5c32d9c69d2a47ea670b442974b53935d1edc7fd64eb21e047a839171b60405160405180910390a45b5050565b6001816000016000828254019250508190555050565b6123d8828260405180602001604052806000815250612954565b5050565b6123e582612112565b612424576040517f08c379a000000000000000000000000000000000000000000000000000000000815260040161241b90614629565b60405180910390fd5b8060066000848152602001908152602001600020908051906020019061244b9291906131c2565b505050565b6000818361245e9190614649565b905092915050565b8173ffffffffffffffffffffffffffffffffffffffff168373ffffffffffffffffffffffffffffffffffffffff1614156124d5576040517f08c379a00000000000000000000000000000000000000000000000000000000081526004016124cc906146ef565b60405180910390fd5b80600560008573ffffffffffffffffffffffffffffffffffffffff1673ffffffffffffffffffffffffffffffffffffffff16815260200190815260200160002060008473ffffffffffffffffffffffffffffffffffffffff1673ffffffffffffffffffffffffffffffffffffffff16815260200190815260200160002060006101000a81548160ff0219169083151502179055508173ffffffffffffffffffffffffffffffffffffffff168373ffffffffffffffffffffffffffffffffffffffff167f17307eab39ab6107e8899845ad3d59bd9653f200f220920489ca2b5937696c31836040516125c69190613359565b60405180910390a3505050565b6125de848484611eab565b6125ea848484846129af565b612629576040517f08c379a000000000000000000000000000000000000000000000000000000000815260040161262090614781565b60405180910390fd5b50505050565b606060405180602001604052806000815250905090565b606061265182611cfc565b600061265b61262f565b9050600081511161267b57604051806020016040528060008152506126a6565b8061268584612b46565b60405160200161269692919061443b565b6040516020818303038152906040525b915050919050565b60007f80ac58cd000000000000000000000000000000000000000000000000000000007bffffffffffffffffffffffffffffffffffffffffffffffffffffffff1916827bffffffffffffffffffffffffffffffffffffffffffffffffffffffff1916148061277957507f5b5e139f000000000000000000000000000000000000000000000000000000007bffffffffffffffffffffffffffffffffffffffffffffffffffffffff1916827bffffffffffffffffffffffffffffffffffffffffffffffffffffffff1916145b80612789575061278882612ca7565b5b9050919050565b505050565b505050565b60006127a58261103f565b90506127b381600084612790565b6127be600083611d4f565b6001600360008373ffffffffffffffffffffffffffffffffffffffff1673ffffffffffffffffffffffffffffffffffffffff168152602001908152602001600020600082825461280e9190614583565b925050819055506002600083815260200190815260200160002060006101000a81549073ffffffffffffffffffffffffffffffffffffffff021916905581600073ffffffffffffffffffffffffffffffffffffffff168273ffffffffffffffffffffffffffffffffffffffff167fddf252ad1be2c89b69c2b068fc378daa952ba7f163c4a11628f55a4df523b3ef60405160405180910390a46128b381600084612795565b5050565b6128c182826111a9565b612950576128e68173ffffffffffffffffffffffffffffffffffffffff166014612d11565b6128f48360001c6020612d11565b604051602001612905929190614839565b6040516020818303038152906040526040517f08c379a0000000000000000000000000000000000000000000000000000000008152600401612947919061340d565b60405180910390fd5b5050565b61295e8383612f4d565b61296b60008484846129af565b6129aa576040517f08c379a00000000000000000000000000000000000000000000000000000000081526004016129a190614781565b60405180910390fd5b505050565b60006129d08473ffffffffffffffffffffffffffffffffffffffff16613127565b15612b39578373ffffffffffffffffffffffffffffffffffffffff1663150b7a026129f9611d47565b8786866040518563ffffffff1660e01b8152600401612a1b94939291906148c8565b602060405180830381600087803b158015612a3557600080fd5b505af1925050508015612a6657506040513d601f19601f82011682018060405250810190612a639190614929565b60015b612ae9573d8060008114612a96576040519150601f19603f3d011682016040523d82523d6000602084013e612a9b565b606091505b50600081511415612ae1576040517f08c379a0000000000000000000000000000000000000000000000000000000008152600401612ad890614781565b60405180910390fd5b805181602001fd5b63150b7a0260e01b7bffffffffffffffffffffffffffffffffffffffffffffffffffffffff1916817bffffffffffffffffffffffffffffffffffffffffffffffffffffffff191614915050612b3e565b600190505b949350505050565b60606000821415612b8e576040518060400160405280600181526020017f30000000000000000000000000000000000000000000000000000000000000008152509050612ca2565b600082905060005b60008214612bc0578080612ba990613f0f565b915050600a82612bb99190614985565b9150612b96565b60008167ffffffffffffffff811115612bdc57612bdb613859565b5b6040519080825280601f01601f191660200182016040528015612c0e5781602001600182028036833780820191505090505b5090505b60008514612c9b57600182612c279190614583565b9150600a85612c3691906149b6565b6030612c429190613eb9565b60f81b818381518110612c5857612c57613f58565b5b60200101907effffffffffffffffffffffffffffffffffffffffffffffffffffffffffffff1916908160001a905350600a85612c949190614985565b9450612c12565b8093505050505b919050565b60007f01ffc9a7000000000000000000000000000000000000000000000000000000007bffffffffffffffffffffffffffffffffffffffffffffffffffffffff1916827bffffffffffffffffffffffffffffffffffffffffffffffffffffffff1916149050919050565b606060006002836002612d249190614649565b612d2e9190613eb9565b67ffffffffffffffff811115612d4757612d46613859565b5b6040519080825280601f01601f191660200182016040528015612d795781602001600182028036833780820191505090505b5090507f300000000000000000000000000000000000000000000000000000000000000081600081518110612db157612db0613f58565b5b60200101907effffffffffffffffffffffffffffffffffffffffffffffffffffffffffffff1916908160001a9053507f780000000000000000000000000000000000000000000000000000000000000081600181518110612e1557612e14613f58565b5b60200101907effffffffffffffffffffffffffffffffffffffffffffffffffffffffffffff1916908160001a90535060006001846002612e559190614649565b612e5f9190613eb9565b90505b6001811115612eff577f3031323334353637383961626364656600000000000000000000000000000000600f861660108110612ea157612ea0613f58565b5b1a60f81b828281518110612eb857612eb7613f58565b5b60200101907effffffffffffffffffffffffffffffffffffffffffffffffffffffffffffff1916908160001a905350600485901c945080612ef8906149e7565b9050612e62565b5060008414612f43576040517f08c379a0000000000000000000000000000000000000000000000000000000008152600401612f3a90614a5d565b60405180910390fd5b8091505092915050565b600073ffffffffffffffffffffffffffffffffffffffff168273ffffffffffffffffffffffffffffffffffffffff161415612fbd576040517f08c379a0000000000000000000000000000000000000000000000000000000008152600401612fb490614ac9565b60405180910390fd5b612fc681612112565b15613006576040517f08c379a0000000000000000000000000000000000000000000000000000000008152600401612ffd90614b35565b60405180910390fd5b61301260008383612790565b6001600360008473ffffffffffffffffffffffffffffffffffffffff1673ffffffffffffffffffffffffffffffffffffffff16815260200190815260200160002060008282546130629190613eb9565b92505081905550816002600083815260200190815260200160002060006101000a81548173ffffffffffffffffffffffffffffffffffffffff021916908373ffffffffffffffffffffffffffffffffffffffff160217905550808273ffffffffffffffffffffffffffffffffffffffff16600073ffffffffffffffffffffffffffffffffffffffff167fddf252ad1be2c89b69c2b068fc378daa952ba7f163c4a11628f55a4df523b3ef60405160405180910390a461312360008383612795565b5050565b6000808273ffffffffffffffffffffffffffffffffffffffff163b119050919050565b6040518060c001604052806000815260200160608152602001600073ffffffffffffffffffffffffffffffffffffffff168152602001600073ffffffffffffffffffffffffffffffffffffffff168152602001600073ffffffffffffffffffffffffffffffffffffffff168152602001600081525090565b8280546131ce90613d34565b90600052602060002090601f0160209004810192826131f05760008555613237565b82601f1061320957805160ff1916838001178555613237565b82800160010185558215613237579182015b8281111561323657825182559160200191906001019061321b565b5b5090506132449190613288565b5090565b50805461325490613d34565b6000825580601f106132665750613285565b601f0160209004906000526020600020908101906132849190613288565b5b50565b5b808211156132a1576000816000905550600101613289565b5090565b6000604051905090565b600080fd5b600080fd5b60007fffffffff0000000000000000000000000000000000000000000000000000000082169050919050565b6132ee816132b9565b81146132f957600080fd5b50565b60008135905061330b816132e5565b92915050565b600060208284031215613327576133266132af565b5b6000613335848285016132fc565b91505092915050565b60008115159050919050565b6133538161333e565b82525050565b600060208201905061336e600083018461334a565b92915050565b600081519050919050565b600082825260208201905092915050565b60005b838110156133ae578082015181840152602081019050613393565b838111156133bd576000848401525b50505050565b6000601f19601f8301169050919050565b60006133df82613374565b6133e9818561337f565b93506133f9818560208601613390565b613402816133c3565b840191505092915050565b6000602082019050818103600083015261342781846133d4565b905092915050565b6000819050919050565b6134428161342f565b811461344d57600080fd5b50565b60008135905061345f81613439565b92915050565b60006020828403121561347b5761347a6132af565b5b600061348984828501613450565b91505092915050565b600073ffffffffffffffffffffffffffffffffffffffff82169050919050565b60006134bd82613492565b9050919050565b6134cd816134b2565b82525050565b60006020820190506134e860008301846134c4565b92915050565b6134f7816134b2565b811461350257600080fd5b50565b600081359050613514816134ee565b92915050565b60008060408385031215613531576135306132af565b5b600061353f85828601613505565b925050602061355085828601613450565b9150509250929050565b600081519050919050565b600082825260208201905092915050565b6000819050602082019050919050565b61358f8161342f565b82525050565b600082825260208201905092915050565b60006135b182613374565b6135bb8185613595565b93506135cb818560208601613390565b6135d4816133c3565b840191505092915050565b6135e8816134b2565b82525050565b600060c0830160008301516136066000860182613586565b506020830151848203602086015261361e82826135a6565b915050604083015161363360408601826135df565b50606083015161364660608601826135df565b50608083015161365960808601826135df565b5060a083015161366c60a0860182613586565b508091505092915050565b600061368383836135ee565b905092915050565b6000602082019050919050565b60006136a38261355a565b6136ad8185613565565b9350836020820285016136bf85613576565b8060005b858110156136fb57848403895281516136dc8582613677565b94506136e78361368b565b925060208a019950506001810190506136c3565b50829750879550505050505092915050565b600060208201905081810360008301526137278184613698565b905092915050565b600080600060608486031215613748576137476132af565b5b600061375686828701613505565b935050602061376786828701613505565b925050604061377886828701613450565b9150509250925092565b6000819050919050565b61379581613782565b81146137a057600080fd5b50565b6000813590506137b28161378c565b92915050565b6000602082840312156137ce576137cd6132af565b5b60006137dc848285016137a3565b91505092915050565b6137ee81613782565b82525050565b600060208201905061380960008301846137e5565b92915050565b60008060408385031215613826576138256132af565b5b6000613834858286016137a3565b925050602061384585828601613505565b9150509250929050565b600080fd5b600080fd5b7f4e487b7100000000000000000000000000000000000000000000000000000000600052604160045260246000fd5b613891826133c3565b810181811067ffffffffffffffff821117156138b0576138af613859565b5b80604052505050565b60006138c36132a5565b90506138cf8282613888565b919050565b600067ffffffffffffffff8211156138ef576138ee613859565b5b6138f8826133c3565b9050602081019050919050565b82818337600083830152505050565b6000613927613922846138d4565b6138b9565b90508281526020810184848401111561394357613942613854565b5b61394e848285613905565b509392505050565b600082601f83011261396b5761396a61384f565b5b813561397b848260208601613914565b91505092915050565b60008060006060848603121561399d5761399c6132af565b5b60006139ab86828701613505565b935050602084013567ffffffffffffffff8111156139cc576139cb6132b4565b5b6139d886828701613956565b92505060406139e986828701613450565b9150509250925092565b6139fc8161342f565b82525050565b6000602082019050613a1760008301846139f3565b92915050565b600060208284031215613a3357613a326132af565b5b6000613a4184828501613505565b91505092915050565b600060c083016000830151613a626000860182613586565b5060208301518482036020860152613a7a82826135a6565b9150506040830151613a8f60408601826135df565b506060830151613aa260608601826135df565b506080830151613ab560808601826135df565b5060a0830151613ac860a0860182613586565b508091505092915050565b60006020820190508181036000830152613aed8184613a4a565b905092915050565b613afe8161333e565b8114613b0957600080fd5b50565b600081359050613b1b81613af5565b92915050565b60008060408385031215613b3857613b376132af565b5b6000613b4685828601613505565b9250506020613b5785828601613b0c565b9150509250929050565b60008060408385031215613b7857613b776132af565b5b6000613b8685828601613450565b9250506020613b9785828601613505565b9150509250929050565b600067ffffffffffffffff821115613bbc57613bbb613859565b5b613bc5826133c3565b9050602081019050919050565b6000613be5613be084613ba1565b6138b9565b905082815260208101848484011115613c0157613c00613854565b5b613c0c848285613905565b509392505050565b600082601f830112613c2957613c2861384f565b5b8135613c39848260208601613bd2565b91505092915050565b60008060008060808587031215613c5c57613c5b6132af565b5b6000613c6a87828801613505565b9450506020613c7b87828801613505565b9350506040613c8c87828801613450565b925050606085013567ffffffffffffffff811115613cad57613cac6132b4565b5b613cb987828801613c14565b91505092959194509250565b60008060408385031215613cdc57613cdb6132af565b5b6000613cea85828601613505565b9250506020613cfb85828601613505565b9150509250929050565b7f4e487b7100000000000000000000000000000000000000000000000000000000600052602260045260246000fd5b60006002820490506001821680613d4c57607f821691505b60208210811415613d6057613d5f613d05565b5b50919050565b7f4552433732313a20617070726f76616c20746f2063757272656e74206f776e6560008201527f7200000000000000000000000000000000000000000000000000000000000000602082015250565b6000613dc260218361337f565b9150613dcd82613d66565b604082019050919050565b60006020820190508181036000830152613df181613db5565b9050919050565b7f4552433732313a20617070726f76652063616c6c6572206973206e6f7420746f60008201527f6b656e206f776e6572206e6f7220617070726f76656420666f7220616c6c0000602082015250565b6000613e54603e8361337f565b9150613e5f82613df8565b604082019050919050565b60006020820190508181036000830152613e8381613e47565b9050919050565b7f4e487b7100000000000000000000000000000000000000000000000000000000600052601160045260246000fd5b6000613ec48261342f565b9150613ecf8361342f565b9250827fffffffffffffffffffffffffffffffffffffffffffffffffffffffffffffffff03821115613f0457613f03613e8a565b5b828201905092915050565b6000613f1a8261342f565b91507fffffffffffffffffffffffffffffffffffffffffffffffffffffffffffffffff821415613f4d57613f4c613e8a565b5b600182019050919050565b7f4e487b7100000000000000000000000000000000000000000000000000000000600052603260045260246000fd5b7f4552433732313a2063616c6c6572206973206e6f7420746f6b656e206f776e6560008201527f72206e6f7220617070726f766564000000000000000000000000000000000000602082015250565b6000613fe3602e8361337f565b9150613fee82613f87565b604082019050919050565b6000602082019050818103600083015261401281613fd6565b9050919050565b7f546f6b656e20646f6573206e6f74206578697374000000000000000000000000600082015250565b600061404f60148361337f565b915061405a82614019565b602082019050919050565b6000602082019050818103600083015261407e81614042565b9050919050565b7f416363657373436f6e74726f6c3a2063616e206f6e6c792072656e6f756e636560008201527f20726f6c657320666f722073656c660000000000000000000000000000000000602082015250565b60006140e1602f8361337f565b91506140ec82614085565b604082019050919050565b60006020820190508181036000830152614110816140d4565b9050919050565b600060a082019050818103600083015261413181886133d4565b905061414060208301876134c4565b61414d60408301866134c4565b61415a60608301856134c4565b61416760808301846139f3565b9695505050505050565b7f596f7520646f6e742068617665207468652072696768747320746f206372656160008201527f74652057617272616e7479000000000000000000000000000000000000000000602082015250565b60006141cd602b8361337f565b91506141d882614171565b604082019050919050565b600060208201905081810360008301526141fc816141c0565b9050919050565b7f4552433732313a20696e76616c696420746f6b656e2049440000000000000000600082015250565b600061423960188361337f565b915061424482614203565b602082019050919050565b600060208201905081810360008301526142688161422c565b9050919050565b7f4552433732313a2061646472657373207a65726f206973206e6f74206120766160008201527f6c6964206f776e65720000000000000000000000000000000000000000000000602082015250565b60006142cb60298361337f565b91506142d68261426f565b604082019050919050565b600060208201905081810360008301526142fa816142be565b9050919050565b7f4f6e6c79206974656d206f776e65722063616e20706572666f726d207468697360008201527f206f7065726174696f6e00000000000000000000000000000000000000000000602082015250565b600061435d602a8361337f565b915061436882614301565b604082019050919050565b6000602082019050818103600083015261438c81614350565b9050919050565b7f57617272616e7479204578706972656400000000000000000000000000000000600082015250565b60006143c960108361337f565b91506143d482614393565b602082019050919050565b600060208201905081810360008301526143f8816143bc565b9050919050565b600081905092915050565b600061441582613374565b61441f81856143ff565b935061442f818560208601613390565b80840191505092915050565b6000614447828561440a565b9150614453828461440a565b91508190509392505050565b7f4552433732313a207472616e736665722066726f6d20696e636f72726563742060008201527f6f776e6572000000000000000000000000000000000000000000000000000000602082015250565b60006144bb60258361337f565b91506144c68261445f565b604082019050919050565b600060208201905081810360008301526144ea816144ae565b9050919050565b7f4552433732313a207472616e7366657220746f20746865207a65726f2061646460008201527f7265737300000000000000000000000000000000000000000000000000000000602082015250565b600061454d60248361337f565b9150614558826144f1565b604082019050919050565b6000602082019050818103600083015261457c81614540565b9050919050565b600061458e8261342f565b91506145998361342f565b9250828210156145ac576145ab613e8a565b5b828203905092915050565b7f45524337323155524953746f726167653a2055524920736574206f66206e6f6e60008201527f6578697374656e7420746f6b656e000000000000000000000000000000000000602082015250565b6000614613602e8361337f565b915061461e826145b7565b604082019050919050565b6000602082019050818103600083015261464281614606565b9050919050565b60006146548261342f565b915061465f8361342f565b9250817fffffffffffffffffffffffffffffffffffffffffffffffffffffffffffffffff048311821515161561469857614697613e8a565b5b828202905092915050565b7f4552433732313a20617070726f766520746f2063616c6c657200000000000000600082015250565b60006146d960198361337f565b91506146e4826146a3565b602082019050919050565b60006020820190508181036000830152614708816146cc565b9050919050565b7f4552433732313a207472616e7366657220746f206e6f6e20455243373231526560008201527f63656976657220696d706c656d656e7465720000000000000000000000000000602082015250565b600061476b60328361337f565b91506147768261470f565b604082019050919050565b6000602082019050818103600083015261479a8161475e565b9050919050565b7f416363657373436f6e74726f6c3a206163636f756e7420000000000000000000600082015250565b60006147d76017836143ff565b91506147e2826147a1565b601782019050919050565b7f206973206d697373696e6720726f6c6520000000000000000000000000000000600082015250565b60006148236011836143ff565b915061482e826147ed565b601182019050919050565b6000614844826147ca565b9150614850828561440a565b915061485b82614816565b9150614867828461440a565b91508190509392505050565b600081519050919050565b600082825260208201905092915050565b600061489a82614873565b6148a4818561487e565b93506148b4818560208601613390565b6148bd816133c3565b840191505092915050565b60006080820190506148dd60008301876134c4565b6148ea60208301866134c4565b6148f760408301856139f3565b8181036060830152614909818461488f565b905095945050505050565b600081519050614923816132e5565b92915050565b60006020828403121561493f5761493e6132af565b5b600061494d84828501614914565b91505092915050565b7f4e487b7100000000000000000000000000000000000000000000000000000000600052601260045260246000fd5b60006149908261342f565b915061499b8361342f565b9250826149ab576149aa614956565b5b828204905092915050565b60006149c18261342f565b91506149cc8361342f565b9250826149dc576149db614956565b5b828206905092915050565b60006149f28261342f565b91506000821415614a0657614a05613e8a565b5b600182039050919050565b7f537472696e67733a20686578206c656e67746820696e73756666696369656e74600082015250565b6000614a4760208361337f565b9150614a5282614a11565b602082019050919050565b60006020820190508181036000830152614a7681614a3a565b9050919050565b7f4552433732313a206d696e7420746f20746865207a65726f2061646472657373600082015250565b6000614ab360208361337f565b9150614abe82614a7d565b602082019050919050565b60006020820190508181036000830152614ae281614aa6565b9050919050565b7f4552433732313a20746f6b656e20616c7265616479206d696e74656400000000600082015250565b6000614b1f601c8361337f565b9150614b2a82614ae9565b602082019050919050565b60006020820190508181036000830152614b4e81614b12565b905091905056fea26469706673582212200d6172f017ed7c73edf26237844a74630fd905064e75406dbdf7472c519a379764736f6c63430008090033",
  "linkReferences": {},
  "deployedLinkReferences": {}
}